{
  "_format": "hh-sol-artifact-1",
  "contractName": "MultipleSignatureWallet",
  "sourceName": "contracts/MultiSignature.sol",
  "abi": [
    {
      "inputs": [
        {
          "internalType": "address[]",
          "name": "owners",
          "type": "address[]"
        },
        {
          "internalType": "uint256",
          "name": "numConfirmations",
          "type": "uint256"
        }
      ],
      "stateMutability": "nonpayable",
      "type": "constructor"
    },
    {
      "inputs": [
        {
          "internalType": "uint256",
          "name": "requested",
          "type": "uint256"
        },
        {
          "internalType": "uint256",
          "name": "available",
          "type": "uint256"
        }
      ],
      "name": "NotEnoughFunds",
      "type": "error"
    },
    {
      "anonymous": false,
      "inputs": [
        {
          "indexed": false,
          "internalType": "address",
          "name": "from",
          "type": "address"
        },
        {
          "indexed": false,
          "internalType": "uint256",
          "name": "transactionId",
          "type": "uint256"
        }
      ],
      "name": "ConfirmTransaction",
      "type": "event"
    },
    {
      "anonymous": false,
      "inputs": [
        {
          "indexed": false,
          "internalType": "address",
          "name": "from",
          "type": "address"
        },
        {
          "indexed": false,
          "internalType": "uint256",
          "name": "amount",
          "type": "uint256"
        }
      ],
      "name": "DepositFunds",
      "type": "event"
    },
    {
      "anonymous": false,
      "inputs": [
        {
          "indexed": false,
          "internalType": "address",
          "name": "from",
          "type": "address"
        },
        {
          "indexed": false,
          "internalType": "address",
          "name": "to",
          "type": "address"
        },
        {
          "indexed": false,
          "internalType": "uint256",
          "name": "transactionId",
          "type": "uint256"
        },
        {
          "indexed": false,
          "internalType": "uint256",
          "name": "amount",
          "type": "uint256"
        }
      ],
      "name": "SubmitTransaction",
      "type": "event"
    },
    {
      "anonymous": false,
      "inputs": [
        {
          "indexed": false,
          "internalType": "address",
          "name": "from",
          "type": "address"
        },
        {
          "indexed": false,
          "internalType": "address",
          "name": "to",
          "type": "address"
        },
        {
          "indexed": false,
          "internalType": "uint256",
          "name": "value",
          "type": "uint256"
        },
        {
          "indexed": false,
          "internalType": "uint256",
          "name": "transactionId",
          "type": "uint256"
        }
      ],
      "name": "excuteTranscation",
      "type": "event"
    },
    {
      "inputs": [],
      "name": "depositEther",
      "outputs": [],
      "stateMutability": "payable",
      "type": "function"
    },
    {
      "inputs": [],
      "name": "getCompeltedTranscationList",
      "outputs": [
        {
          "internalType": "uint256[]",
          "name": "",
          "type": "uint256[]"
        }
      ],
      "stateMutability": "view",
      "type": "function"
    },
    {
      "inputs": [],
      "name": "getEachAddressBalance",
      "outputs": [
        {
          "internalType": "uint256",
          "name": "",
          "type": "uint256"
        }
      ],
      "stateMutability": "view",
      "type": "function"
    },
    {
      "inputs": [],
      "name": "getPendingTranscationList",
      "outputs": [
        {
          "internalType": "uint256[]",
          "name": "",
          "type": "uint256[]"
        }
      ],
      "stateMutability": "view",
      "type": "function"
    },
    {
      "inputs": [],
      "name": "numConfirmationsRequired",
      "outputs": [
        {
          "internalType": "uint256",
          "name": "",
          "type": "uint256"
        }
      ],
      "stateMutability": "view",
      "type": "function"
    },
    {
      "inputs": [
        {
          "internalType": "uint256",
          "name": "transactionId",
          "type": "uint256"
        }
      ],
      "name": "signedTransaction",
      "outputs": [],
      "stateMutability": "payable",
      "type": "function"
    },
    {
      "inputs": [
        {
          "internalType": "uint256",
          "name": "transactionId",
          "type": "uint256"
        }
      ],
      "name": "transcationDetails",
      "outputs": [
        {
          "internalType": "address",
          "name": "from",
          "type": "address"
        },
        {
          "internalType": "address",
          "name": "to",
          "type": "address"
        },
        {
          "internalType": "uint256",
          "name": "value",
          "type": "uint256"
        },
        {
          "internalType": "bool",
          "name": "executed",
          "type": "bool"
        },
        {
          "internalType": "uint256",
          "name": "numConfirmations",
          "type": "uint256"
        },
        {
          "internalType": "address[]",
          "name": "signedSignatured",
          "type": "address[]"
        }
      ],
      "stateMutability": "view",
      "type": "function"
    },
    {
      "inputs": [],
      "name": "walletBalance",
      "outputs": [
        {
          "internalType": "uint256",
          "name": "",
          "type": "uint256"
        }
      ],
      "stateMutability": "view",
      "type": "function"
    },
    {
      "inputs": [
        {
          "internalType": "address",
          "name": "_to",
          "type": "address"
        },
        {
          "internalType": "uint256",
          "name": "amount",
          "type": "uint256"
        }
      ],
      "name": "withDraw",
      "outputs": [],
      "stateMutability": "nonpayable",
      "type": "function"
    }
  ],
  "bytecode": "0x60806040523480156200001157600080fd5b5060405162001e4438038062001e448339818101604052810190620000379190620003df565b60008251116200007e576040517f08c379a00000000000000000000000000000000000000000000000000000000081526004016200007590620004d5565b60405180910390fd5b60008111801562000090575081518111155b620000d2576040517f08c379a0000000000000000000000000000000000000000000000000000000008152600401620000c9906200053b565b60405180910390fd5b60005b8251811015620002ff5760008382815181106200011b577f4e487b7100000000000000000000000000000000000000000000000000000000600052603260045260246000fd5b60200260200101519050600073ffffffffffffffffffffffffffffffffffffffff168173ffffffffffffffffffffffffffffffffffffffff16141562000198576040517f08c379a00000000000000000000000000000000000000000000000000000000081526004016200018f9062000519565b60405180910390fd5b600115156000808373ffffffffffffffffffffffffffffffffffffffff1673ffffffffffffffffffffffffffffffffffffffff16815260200190815260200160002060009054906101000a900460ff16151514156200022e576040517f08c379a00000000000000000000000000000000000000000000000000000000081526004016200022590620004f7565b60405180910390fd5b60016000808373ffffffffffffffffffffffffffffffffffffffff1673ffffffffffffffffffffffffffffffffffffffff16815260200190815260200160002060006101000a81548160ff0219169083151502179055506001819080600181540180825580915050600190039060005260206000200160009091909190916101000a81548173ffffffffffffffffffffffffffffffffffffffff021916908373ffffffffffffffffffffffffffffffffffffffff160217905550508080620002f6906200063a565b915050620000d5565b50806005819055505050620007cf565b600062000326620003208462000586565b6200055d565b905080838252602082019050828560208602820111156200034657600080fd5b60005b858110156200037a57816200035f888262000384565b84526020840193506020830192505060018101905062000349565b5050509392505050565b60008151905062000395816200079b565b92915050565b600082601f830112620003ad57600080fd5b8151620003bf8482602086016200030f565b91505092915050565b600081519050620003d981620007b5565b92915050565b60008060408385031215620003f357600080fd5b600083015167ffffffffffffffff8111156200040e57600080fd5b6200041c858286016200039b565b92505060206200042f85828601620003c8565b9150509250929050565b600062000448600f83620005b5565b91506200045582620006f7565b602082019050919050565b60006200046f601383620005b5565b91506200047c8262000720565b602082019050919050565b600062000496600d83620005b5565b9150620004a38262000749565b602082019050919050565b6000620004bd601e83620005b5565b9150620004ca8262000772565b602082019050919050565b60006020820190508181036000830152620004f08162000439565b9050919050565b60006020820190508181036000830152620005128162000460565b9050919050565b60006020820190508181036000830152620005348162000487565b9050919050565b600060208201905081810360008301526200055681620004ae565b9050919050565b6000620005696200057c565b905062000577828262000604565b919050565b6000604051905090565b600067ffffffffffffffff821115620005a457620005a3620006b7565b5b602082029050602081019050919050565b600082825260208201905092915050565b6000620005d382620005da565b9050919050565b600073ffffffffffffffffffffffffffffffffffffffff82169050919050565b6000819050919050565b6200060f82620006e6565b810181811067ffffffffffffffff82111715620006315762000630620006b7565b5b80604052505050565b60006200064782620005fa565b91507fffffffffffffffffffffffffffffffffffffffffffffffffffffffffffffffff8214156200067d576200067c62000688565b5b600182019050919050565b7f4e487b7100000000000000000000000000000000000000000000000000000000600052601160045260246000fd5b7f4e487b7100000000000000000000000000000000000000000000000000000000600052604160045260246000fd5b6000601f19601f8301169050919050565b7f6f776e6572732072657175697265640000000000000000000000000000000000600082015250565b7f4f776e657220616c726561647920657869737400000000000000000000000000600082015250565b7f496e7661696c64204f776e657200000000000000000000000000000000000000600082015250565b7f6d696e696d756d20636f6e6669726d6174696f6e732072657175697265640000600082015250565b620007a681620005c6565b8114620007b257600080fd5b50565b620007c081620005fa565b8114620007cc57600080fd5b50565b61166580620007df6000396000f3fe6080604052600436106100865760003560e01c806398ea5fca1161005957806398ea5fca14610126578063b2ae54b914610130578063c549355514610172578063cd0a314b1461019d578063d0549b85146101c857610086565b8063191e2e831461008b57806328c75d53146100b457806338b6bc72146100d057806343fe2069146100fb575b600080fd5b34801561009757600080fd5b506100b260048036038101906100ad9190610ede565b6101f3565b005b6100ce60048036038101906100c99190610f1a565b610426565b005b3480156100dc57600080fd5b506100e5610ab3565b6040516100f29190611304565b60405180910390f35b34801561010757600080fd5b50610110610ad2565b60405161011d9190611222565b60405180910390f35b61012e610bbc565b005b34801561013c57600080fd5b5061015760048036038101906101529190610f1a565b610c01565b6040516101699695949392919061114c565b60405180910390f35b34801561017e57600080fd5b50610187610dbc565b6040516101949190611222565b60405180910390f35b3480156101a957600080fd5b506101b2610ea6565b6040516101bf9190611304565b60405180910390f35b3480156101d457600080fd5b506101dd610eae565b6040516101ea9190611304565b60405180910390f35b600115156000803373ffffffffffffffffffffffffffffffffffffffff1673ffffffffffffffffffffffffffffffffffffffff16815260200190815260200160002060009054906101000a900460ff16151514610285576040517f08c379a000000000000000000000000000000000000000000000000000000000815260040161027c90611244565b60405180910390fd5b6000479050818110156102d15781816040517f8c9053680000000000000000000000000000000000000000000000000000000081526004016102c892919061131f565b60405180910390fd5b6000600660008154809291906102e690611447565b9190505590506000600460008381526020019081526020016000209050338160000160006101000a81548173ffffffffffffffffffffffffffffffffffffffff021916908373ffffffffffffffffffffffffffffffffffffffff160217905550848160010160006101000a81548173ffffffffffffffffffffffffffffffffffffffff021916908373ffffffffffffffffffffffffffffffffffffffff16021790555083816002018190555060008160030160006101000a81548160ff0219169083151502179055506000816004018190555060028290806001815401808255809150506001900390600052602060002001600090919091909150557f1aa37ec1085ba48997045f7d2c40d89056ff6e2daf78fd8403855592d2d1ca173386848760405161041794939291906111b4565b60405180910390a15050505050565b600115156000803373ffffffffffffffffffffffffffffffffffffffff1673ffffffffffffffffffffffffffffffffffffffff16815260200190815260200160002060009054906101000a900460ff161515146104b8576040517f08c379a00000000000000000000000000000000000000000000000000000000081526004016104af90611244565b60405180910390fd5b6000600460008381526020019081526020016000209050600280549050821115610517576040517f08c379a000000000000000000000000000000000000000000000000000000000815260040161050e90611284565b60405180910390fd5b600115158160030160009054906101000a900460ff1615151415610570576040517f08c379a0000000000000000000000000000000000000000000000000000000008152600401610567906112a4565b60405180910390fd5b8060010160009054906101000a900473ffffffffffffffffffffffffffffffffffffffff1673ffffffffffffffffffffffffffffffffffffffff163373ffffffffffffffffffffffffffffffffffffffff161415610603576040517f08c379a00000000000000000000000000000000000000000000000000000000081526004016105fa906112c4565b60405180910390fd5b60018160060160003373ffffffffffffffffffffffffffffffffffffffff1673ffffffffffffffffffffffffffffffffffffffff16815260200190815260200160002060009054906101000a900460ff1660ff161415610698576040517f08c379a000000000000000000000000000000000000000000000000000000000815260040161068f906112e4565b60405180910390fd5b60018160060160003373ffffffffffffffffffffffffffffffffffffffff1673ffffffffffffffffffffffffffffffffffffffff16815260200190815260200160002060006101000a81548160ff021916908360ff16021790555080600401600081548092919061070890611447565b919050555080600501339080600181540180825580915050600190039060005260206000200160009091909190916101000a81548173ffffffffffffffffffffffffffffffffffffffff021916908373ffffffffffffffffffffffffffffffffffffffff1602179055507f5cbe105e36805f7820e291f799d5794ff948af2a5f664e580382defb6339004133836040516107a39291906111f9565b60405180910390a180600401546005541415610aaf574781600201541115610800576040517f08c379a00000000000000000000000000000000000000000000000000000000081526004016107f790611264565b60405180910390fd5b60018160030160006101000a81548160ff0219169083151502179055508060010160009054906101000a900473ffffffffffffffffffffffffffffffffffffffff1673ffffffffffffffffffffffffffffffffffffffff166108fc82600201549081150290604051600060405180830381858888f1935050505015801561088b573d6000803e3d6000fd5b506000805b6002805490508110156109ac578160ff166001141561094757600281815481106108e3577f4e487b7100000000000000000000000000000000000000000000000000000000600052603260045260246000fd5b906000526020600020015460026001836108fd91906113cb565b81548110610934577f4e487b7100000000000000000000000000000000000000000000000000000000600052603260045260246000fd5b9060005260206000200181905550610999565b60028181548110610981577f4e487b7100000000000000000000000000000000000000000000000000000000600052603260045260246000fd5b906000526020600020015484141561099857600191505b5b80806109a490611447565b915050610890565b5060028054806109e5577f4e487b7100000000000000000000000000000000000000000000000000000000600052603160045260246000fd5b6001900381819060005260206000200160009055905560038390806001815401808255809150506001900390600052602060002001600090919091909150557f2d1ad3e98a4cb2dd30b0f8e735ff69a95380b3b9317781b6f28bd098bc7c07278260000160009054906101000a900473ffffffffffffffffffffffffffffffffffffffff168360010160009054906101000a900473ffffffffffffffffffffffffffffffffffffffff16846002015486604051610aa594939291906111b4565b60405180910390a1505b5050565b60003373ffffffffffffffffffffffffffffffffffffffff1631905090565b6060600115156000803373ffffffffffffffffffffffffffffffffffffffff1673ffffffffffffffffffffffffffffffffffffffff16815260200190815260200160002060009054906101000a900460ff16151514610b66576040517f08c379a0000000000000000000000000000000000000000000000000000000008152600401610b5d90611244565b60405180910390fd5b6003805480602002602001604051908101604052809291908181526020018280548015610bb257602002820191906000526020600020905b815481526020019060010190808311610b9e575b5050505050905090565b6000341115610bff577fd241e73300212f6df233a8e6d3146b88a9d4964e06621d54b5ff6afeba7b1b883334604051610bf69291906111f9565b60405180910390a15b565b60008060008060006060600115156000803373ffffffffffffffffffffffffffffffffffffffff1673ffffffffffffffffffffffffffffffffffffffff16815260200190815260200160002060009054906101000a900460ff16151514610c9d576040517f08c379a0000000000000000000000000000000000000000000000000000000008152600401610c9490611244565b60405180910390fd5b60006004600089815260200190815260200160002090508060000160009054906101000a900473ffffffffffffffffffffffffffffffffffffffff168160010160009054906101000a900473ffffffffffffffffffffffffffffffffffffffff1682600201548360030160009054906101000a900460ff1684600401548560050180805480602002602001604051908101604052809291908181526020018280548015610d9f57602002820191906000526020600020905b8160009054906101000a900473ffffffffffffffffffffffffffffffffffffffff1673ffffffffffffffffffffffffffffffffffffffff1681526020019060010190808311610d55575b505050505090509650965096509650965096505091939550919395565b6060600115156000803373ffffffffffffffffffffffffffffffffffffffff1673ffffffffffffffffffffffffffffffffffffffff16815260200190815260200160002060009054906101000a900460ff16151514610e50576040517f08c379a0000000000000000000000000000000000000000000000000000000008152600401610e4790611244565b60405180910390fd5b6002805480602002602001604051908101604052809291908181526020018280548015610e9c57602002820191906000526020600020905b815481526020019060010190808311610e88575b5050505050905090565b600047905090565b60055481565b600081359050610ec381611601565b92915050565b600081359050610ed881611618565b92915050565b60008060408385031215610ef157600080fd5b6000610eff85828601610eb4565b9250506020610f1085828601610ec9565b9150509250929050565b600060208284031215610f2c57600080fd5b6000610f3a84828501610ec9565b91505092915050565b6000610f4f8383610f73565b60208301905092915050565b6000610f67838361112e565b60208301905092915050565b610f7c816113ff565b82525050565b610f8b816113ff565b82525050565b6000610f9c82611368565b610fa68185611398565b9350610fb183611348565b8060005b83811015610fe2578151610fc98882610f43565b9750610fd48361137e565b925050600181019050610fb5565b5085935050505092915050565b6000610ffa82611373565b61100481856113a9565b935061100f83611358565b8060005b838110156110405781516110278882610f5b565b97506110328361138b565b925050600181019050611013565b5085935050505092915050565b61105681611411565b82525050565b60006110696012836113ba565b9150611074826114bf565b602082019050919050565b600061108c6015836113ba565b9150611097826114e8565b602082019050919050565b60006110af6011836113ba565b91506110ba82611511565b602082019050919050565b60006110d26021836113ba565b91506110dd8261153a565b604082019050919050565b60006110f56027836113ba565b915061110082611589565b604082019050919050565b6000611118601a836113ba565b9150611123826115d8565b602082019050919050565b6111378161143d565b82525050565b6111468161143d565b82525050565b600060c0820190506111616000830189610f82565b61116e6020830188610f82565b61117b604083018761113d565b611188606083018661104d565b611195608083018561113d565b81810360a08301526111a78184610f91565b9050979650505050505050565b60006080820190506111c96000830187610f82565b6111d66020830186610f82565b6111e3604083018561113d565b6111f0606083018461113d565b95945050505050565b600060408201905061120e6000830185610f82565b61121b602083018461113d565b9392505050565b6000602082019050818103600083015261123c8184610fef565b905092915050565b6000602082019050818103600083015261125d8161105c565b9050919050565b6000602082019050818103600083015261127d8161107f565b9050919050565b6000602082019050818103600083015261129d816110a2565b9050919050565b600060208201905081810360008301526112bd816110c5565b9050919050565b600060208201905081810360008301526112dd816110e8565b9050919050565b600060208201905081810360008301526112fd8161110b565b9050919050565b6000602082019050611319600083018461113d565b92915050565b6000604082019050611334600083018561113d565b611341602083018461113d565b9392505050565b6000819050602082019050919050565b6000819050602082019050919050565b600081519050919050565b600081519050919050565b6000602082019050919050565b6000602082019050919050565b600082825260208201905092915050565b600082825260208201905092915050565b600082825260208201905092915050565b60006113d68261143d565b91506113e18361143d565b9250828210156113f4576113f3611490565b5b828203905092915050565b600061140a8261141d565b9050919050565b60008115159050919050565b600073ffffffffffffffffffffffffffffffffffffffff82169050919050565b6000819050919050565b60006114528261143d565b91507fffffffffffffffffffffffffffffffffffffffffffffffffffffffffffffffff82141561148557611484611490565b5b600182019050919050565b7f4e487b7100000000000000000000000000000000000000000000000000000000600052601160045260246000fd5b7f4f6e6c79204f776e6572204163636573732e0000000000000000000000000000600082015250565b7f6c6573732076616c756520696e206163636f756e740000000000000000000000600082015250565b7f747820646f6573206e6f74206578697374000000000000000000000000000000600082015250565b7f616c72656164792065786563757465642074686973207472616e73636174696f60008201527f6e00000000000000000000000000000000000000000000000000000000000000602082015250565b7f596f75206e6f7420617574686f72697a656420666f722074686973207472616e60008201527f73636174696f6e00000000000000000000000000000000000000000000000000602082015250565b7f616c7265616479207369676e6564207472616e73636174696f6e000000000000600082015250565b61160a816113ff565b811461161557600080fd5b50565b6116218161143d565b811461162c57600080fd5b5056fea264697066735822122014c9ccb251f9101becab90c83a409f024bf4c13680cfc71aec342f9df3d9a74264736f6c63430008040033",
  "linkReferences": {},
  "deployedLinkReferences": {}
}